:100A0600534D41525420434152205041524B494E7E
:100A16004720005553494E472038303531204D4345
:100A26005500454E544552205553455220434F4498
:100A3600453A00434F44453A2000534C4F54533AED
:100A460000313233340057454C434F4D452053480F
:100A560041524D4100534C4F542031204F50454E8A
:100A6600454400474F4F4442594520534841524D53
:100A76004100534C4F5420312046524545440032E4
:100A86003334350057454C434F4D45204D55525450
:100A9600485900534C4F542032204F50454E454440
:100AA60000474F4F44425945204D5552544859002E
:100AB600534C4F542032204652454544003334357A
:100AC600360057454C434F4D45204B48414E005349
:100AD6004C4F542033204F50454E454400474F4F0E
:100AE60044425945204B48414E00534C4F54203305
:100AF60020465245454400343536370057454C4369
:100B06004F4D4520524544445900534C4F542034D0
:100B1600204F50454E454400474F4F4442594520CB
:100B2600524544445900534C4F54203420465245B4
:100B3600454400494E56414C494420434F444500E4
:100B46004143434553532044454E494544005BA623
:060B56005D005B205D0064
:080DA600C100C101C102C1033B
:10080000C2A1C2A0120D707F01120D927BFF7A0A65
:100810007906120D237FC0120D927BFF7A0A791997
:10082000120D237FDC7E05120D507F01120D927B8D
:10083000FF7A0A7928120D237FC0120D927BFF7A6E
:100840000A7939120D237F94120D92120D1D120C8C
:10085000537FC6120D92E4F508E508C39404501ABC
:10086000120BE88F09E50960F0AF08050874102F36
:10087000F8A6097F2A120D9C80DFE4F5147F2C7EF8
:1008800001120D507F01120D92750DFF750E0A7544
:100890000F47120CE75043200020D2007BFF7A0A5A
:1008A000794C120D237FC0120D927BFF7A0A795B7F
:1008B000120D23D2A0C2A10209C6C2007BFF7A0A90
:1008C0007969120D237FC0120D927BFF7A0A797825
:1008D000120D23C2A0D2A10209C6750DFF750E0A22
:1008E000750F85120CE7504220011FD2017BFF7A61
:1008F0000A798A120D237FC0120D927BFF7A0A7942
:1009000099120D23D2A0C2A1801DC2017BFF7A0AD9
:1009100079A7120D237FC0120D927BFF7A0A79B658
:10092000120D23C2A0D2A10209C6750DFF750E0AD1
:10093000750FC3120CE7504120021FD2027BFF7AD1
:100940000A79C8120D237FC0120D927BFF7A0A79B3
:10095000D5120D23D2A0C2A1801DC2027BFF7A0A4C
:1009600079E3120D237FC0120D927BFF7A0A79F092
:10097000120D23C2A0D2A1804D750DFF750E0A7510
:100980000FFD120CE7504820031FD2037BFF7A0BA8
:100990007902120D237FC0120D927BFF7A0B791022
:1009A000120D23D2A0C2A1801DC2037BFF7A0B7956
:1009B0001E120D237FC0120D927BFF7A0B792C1231
:1009C0000D23C2A0D2A17F207E03120D5080177B81
:1009D000FF7A0B7939120D237FC0120D927BFF7ABB
:1009E0000B7946120D23C2A0C2A17FB07E04120D66
:1009F000507F94120D92120D1D120C537FE87E034E
:060A0000120D5002082A4D
:100C53007FD4120D927BFF3000067A0B7954800407
:100C63007A0B7958120D237BFF3001067A0B7954E6
:100C730080047A0B7958120D237BFF3002067A0B1E
:100C8300795480047A0B7958120D237BFF300306C5
:0E0C93007A0B795480047A0B7958120D2322C3
:100BE800E4FFD2B3D2B2D2B1D2B0C2B020B4057F42
:100BF8003130B4FD20B5057F3230B5FD20B6057F14
:100C08003330B6FDD2B0C2B120B4057F3430B4FD64
:100C180020B5057F3530B5FD20B6057F3630B6FDE9
:100C2800D2B1C2B220B4057F3730B4FD20B5057FFC
:100C38003830B5FD20B6057F3930B6FDD2B2C2B323
:0A0C480020B5057F3030B5FDD2B3B2
:010C5200227F
:060CE7007B007A00791089
:060CED008B0A8A0B890C42
:100CF300E4FFAB0DAA0EA90F8F82758300120CBA05
:100D0300FEAB0AAA0BA90C8F82758300120CBA6E74
:090D13006002C3220FBF04DAD311
:010D1C0022B4
:0A0D92008F90C2A5120D48C2A722DF
:0A0D9C008F90D2A5120D48C2A722C5
:060D1D007BFF7A0A794019
:100D23008B0A8A0B890CAB0AAA0BA90C120CA160C3
:100D330013050CE50C7002050B14F9120CA1FF123C
:050D43000D9C80E2227E
:100D70007F147E00120D507F38120D927F0C120DE1
:100D8000927F01120D927F80120D927F057E0002EC
:020D90000D5004
:080D4800C2A6D2A77F027E00C3
:100D5000E4FDFCC3ED9FEC9E5015E4FBFA0BBB00D9
:0F0D6000010AEB64FA4A70F50DBD00010C80E446
:010D6F002261
:03000000020B5C94
:0C0B5C00787FE4F6D8FD758120020BA321
:100CA100BB010689828A83E0225002E722BBFE0251
:090CB100E32289828A83E4932284
:100CBA00BB010CE58229F582E5833AF583E02250EF
:100CCA0006E92582F8E622BBFE06E92582F8E22239
:0D0CDA00E58229F582E5833AF583E4932253
:100B6800020800E493A3F8E493A34003F68001F29B
:100B780008DFF48029E493A3F85407240CC8C3338E
:100B8800C4540F4420C8834004F456800146F6DF5D
:100B9800E4800B0102040810204080900DA6E47E3A
:100BA800019360BCA3FF543F30E509541FFEE49352
:100BB800A360010ECF54C025E060A840B8E493A319
:100BC800FAE493A3F8E493A3C8C582C8CAC583CA44
:100BD800F0A3C8C582C8CAC583CADFE9DEE780BEFC
:010DAE000044
:00000001FF
